:020000040800F2
:1000000038040020AD010008330D00080B0D000876
:10001000310D0008C1020008590E00080000000060
:10002000000000000000000000000000570D000864
:10003000ED04000800000000550D0008590D0008EF
:10004000C7010008C7010008C7010008C701000870
:10005000C7010008C7010008C7010008C701000860
:10006000C7010008C7010008C7010008C701000850
:10007000C7010008C7010008C7010008C701000840
:10008000C7010008C7010008C70100080000000000
:10009000000000000000000000000000C701000890
:1000A000C7010008C7010008C7010008C701000810
:1000B000C7010008C7010008C7010008C701000800
:1000C000C7010008C7010008C7010008C7010008F0
:1000D000C7010008C7010008C701000800000000B0
:1000E000C7010008C7010008C701000800000000A0
:1000F000000000000000000000000000C701000830
:1001000000000000C7010008C7010008C70100087F
:1001100000000000000000000000000000000000DF
:10012000C7010008C7010008C7010008C70100088F
:10013000C7010008000000000000000000000000EF
:10014000000000000000000000000000C7010008DF
:10015000C7010008C7010008C7010008C70100085F
:10016000C7010008C70100080000000000000000EF
:10017000000000000000000000000000000000007F
:1001800000000000C701000800000000000000009F
:10019000C7010008C7010008DFF80CD000F07EF8A6
:1001A000004800471D120008380400200648804718
:1001B00006480047FEE7FEE7FEE7FEE7FEE7FEE74C
:1001C000FEE7FEE7FEE7FEE7050E000899010008DE
:1001D0002DE9F05F0546002092469B46884606467C
:1001E000814640241BE0284641464746224600F00F
:1001F00045F853465A46C01A914110D31146184645
:10020000224600F02CF82D1A67EB01084F462246D3
:100210000120002100F023F817EB00094E41201EB9
:10022000A4F10104DFDC484631462A464346BDE8D6
:10023000F09F30B50B46014600202022012409E042
:1002400021FA02F59D4205D303FA02F5491B04FA8F
:1002500002F52844151EA2F10102F1DC30BD202A6E
:1002600004DB203A00FA02F1002070479140C2F10D
:10027000200320FA03F3194390407047202A04DB3F
:10028000203A21FA02F00021704721FA02F3D0400F
:10029000C2F120029140084319467047064C074DB1
:1002A00006E0E06840F0010394E807009847103446
:1002B000AC42F6D3FFF774FFB0120008D01200086A
:1002C000FEE7000070B503221849282000F090FED8
:1002D00004221749442000F08BFE144800240178C2
:1002E0004278090401EB0222124980780B68184415
:1002F0001044086010494A7B097B02EB0121A1FBF5
:100300000035CA1702FB005001FB04014FF47A725A
:100310002046A3FB024501FB025103FB0010C10074
:1003200041EA54700549086070BD000000000020DB
:10033000040000200C000020240000200800002001
:1003400010B503221249242000F052FE0422114964
:10035000442000F04DFE0E480178090603D5002127
:10036000017041708170017842780904807801EB56
:100370000221014408484278007802EB002081FB0A
:100380000010420242EAD1500449086010BD00004A
:1003900000000020040000202400002008000020AD
:1003A0002DE9F041042231492C2000F021FE0422E5
:1003B0002F49442000F01CFE2C482E4A2E4C017878
:1003C0004FF000030D0645784FEA01664FEA0545F8
:1003D0004FEAE6714FEAE57723D5761985787941BA
:1003E0002D02EF177519C078794128185941C0437B
:1003F000C943401C41F10003D179927901EB0221FC
:10040000A0FB0126CD1703FB016100FB05104FF493
:100410007A73A2FB035600FB0360002102FB01007C
:100420001DE07619857879412D02EF177519C0788E
:1004300079412D18D0799279594100EB0220A5FB22
:100440000026C31701FB006005FB03014FF47A731C
:10045000A2FB035601FB0361002002FB00104100D8
:1004600041EAD5702060BDE8F08100000000002066
:1004700004000020240000200800002070B50322A2
:100480001649262000F0B4FD04221549442000F04E
:10049000AFFD12480178090603D5002101704170B3
:1004A0008170017842780904807801EB02210144CF
:1004B0000C480A234279007902EB002081FB0001FD
:1004C000A0FB034501FB0351002200FB0210810247
:1004D00041EA94500449086070BD0000000000200B
:1004E00004000020240000200800002070470000C5
:1004F0002DE9F84FDFF860B100224FF001084FF00E
:10050000030A4FF00F090BF1040E00BF0B6808FA45
:1005100002F42340A3426ED14D68022D01D0122D6A
:100520000ED1D50800EB850CDCF820505607F70EED
:1005300009FA07F6B5430E69BE402E43CCF8206099
:10054000066855000F790AFA05FC07F0030726EA4A
:100550000C06AF40374307604E68012E05D0022ECF
:1005600003D0112E01D0122E0ED18668CF6826EA54
:100570000C06AF40374387604668A6430C79C4F346
:100580000014944034434460C6688C6826EA0C0624
:10059000AC403443C4604C68E40056D52F4C256809
:1005A00045F480452560246822F0030504F4804466
:1005B00000942B4C2E19D6F8084895072F0F09FAEE
:1005C00007F5AC43274DA84201D1002515E0264D83
:1005D000A84201D1012510E0244DA84201D10225F5
:1005E0000BE0234DA84201D1032506E0214DA8428E
:1005F00002D1042501E028E00725BD402543C6F8C7
:100600000858DBF800405D464E689C43F60300D571
:100610001C432C60DEF8004075464E689C43B603D0
:1006200000D51C432C600C4D08352C684E689C434B
:10063000F60200D51C432C60074D0C352C684E6823
:100640009C43B60200D51C432C60521C102AFFF4B8
:100650005DAFBDE8F88F0000003C01404438024027
:100660000030014000000240000402400008024047
:10067000000C0240001002400069084000D0012038
:1006800070470AB1816170470904FBE7014880683F
:100690007047000010000020024881680278114471
:1006A00081607047100000200B4810B5016841F4CC
:1006B00000710160016841F480610160016841F4EA
:1006C00080710160032000F08BF8002000F006F834
:1006D00000F024F8002010BD003C024070B50D4D24
:1006E00004464FF47A712878B1FBF0F00A490968A2
:1006F000B1FBF0F000F0F1FA48B9102C07D200225B
:100700002146501E00F04CF800206C6070BD0120A6
:1007100070BD0000100000201C0000201F4808B51C
:10072000016841F480410160006800F4804000905D
:100730001A48001F016841F080510160006800F014
:1007400080500090032000F04BF8002211466FF01B
:100750000B0000F025F8002211466FF00A0000F0AF
:100760001FF8002211466FF0090000F019F800226E
:100770001146501F00F014F800221146101F00F01F
:100780000FF800221146901E00F00AF80022BDE882
:1007900008401146501E00F003B8000044380240E3
:1007A000F0B40E4B1B680C46C3F30223C3F10705DC
:1007B000042D00D90425191D072901D2002300E0CA
:1007C000DB1E012606FA05F1491E214099409E4094
:1007D000761E16403143F0BC00F0ACBA0CED00E0E0
:1007E000064900F0070208684FF6FF03184040EA88
:1007F0000220034A10430860704700000CED00E03F
:100800000000FA052DE9F0470E46050065D0DFF837
:100810001481D8F80000F7B200F00F00B04207D200
:1008200088F80070D8F8000000F00F00B04254D1F2
:1008300028683D4C810712D5400703D5206840F455
:10084000E05020602878000703D5206840F460401D
:1008500020602068A96820F0F00008432060287814
:10086000C0072DD0304968680839012812D0022805
:1008700013D0032811D00968890700292DDA2168CF
:1008800021F0030101432160FFF700FF814641F29F
:10089000883A0EE009688903EFE709688901ECE707
:1008A000FFF7F4FEA0EB0901514502D90320BDE892
:1008B000F0872068696800F00C00B0EB810FEFD181
:1008C000D8F80010404601F00F01B14207D9077077
:1008D000006800F00F00B04201D00120E7E728785F
:1008E000400705D52068E96820F4E05008432060FF
:1008F0002878000706D52068296920F4604040EA7E
:10090000C100206000F01CF82168084AC1F30311FF
:10091000515CC840064908600020FFF7DFFE002058
:10092000C5E70000003C024008380240A012000861
:100930001C00002001480068704700001C000020D7
:10094000154810B5006810F00C02144813D0144973
:10095000042A0FD0082A0ED10F4C241F22682368C6
:1009600002F03F025B0207D52068C0F38810A0FBAD
:10097000010106E0084610BD2168C1F38811A1FB02
:1009800000010023FFF724FC2168C1F30141491C49
:100990004900B0FBF1F010BD083802400024F4001B
:1009A00040787D012DE9F84F050076D02878DFF8F2
:1009B000F8B2BE4CC00749D0DBF800105846C1F36E
:1009C0008101012908D00068C0F3810002280AD102
:1009D000201D0068400206D52068800336D568686F
:1009E0000028E2D032E06868B0F5803F10D0B0F562
:1009F000A02F206810D020F480302060206820F4E0
:100A0000802020606868A0B1FFF740FE06460CE039
:100A1000206840F48030F4E740F480202060F7E75D
:100A2000FFF734FE801B642873D820688003F7D555
:100A30000CE0FFF72BFE064605E000BFFFF726FEA1
:100A4000801B6428F0D820688003F7D42878DFF86A
:100A5000608280074FF000093ED5DBF80010584651
:100A600011F00C0F09D00068C0F3810002280BD1EF
:100A70008D48001F0068400206D42068800715D505
:100A8000E868012809D111E0E868B8B10120C8F888
:100A90000000FFF7FBFD064605E002E1FFF7F6FD6B
:100AA000801B0228C0D820688007F7D520682969F4
:100AB00020F0F80040EAC10020600DE0C8F8009086
:100AC000FFF7E4FD064604E0FFF7E0FD801B022887
:100AD0001FD820688007F7D42878000722D5724EE7
:100AE000744869696C3671B101210160FFF7CEFD70
:100AF000074604E0FFF7CAFDC01B022809D830688A
:100B00008007F7D50EE0C0F80090FFF7BFFD07465D
:100B100005E083E0FFF7BAFDC01B02287ED83068ED
:100B20008007F7D42878400768D5DFF87CA1002734
:100B30000AF1380ADAF80000C0000BD4DAF8001025
:100B400041F08051CAF80010DAF80000012700F0E7
:100B500080500090584E3068C00510D4306840F482
:100B600080703060FFF792FD009005E0FFF78EFD8A
:100B70000099401A022851D83068C005F6D54A4E6F
:100B8000A868683601280FD00528306810D020F0FA
:100B900001003060306820F004003060A868B8B10F
:100BA000FFF774FD00900FE0306840F00100F4E7BB
:100BB00040F004003060F7E7FFF768FD0099411A44
:100BC00041F28830814264D830688007F4D50EE065
:100BD000FFF75CFD009007E0FFF758FD0099411A10
:100BE00041F28830814254D830688007F4D42FB164
:100BF000DAF8001021F08051CAF80010A869C0B3DB
:100C0000DBF80010C1F3810102294AD002284846CE
:100C100007D0C8F86000FFF739FD00E039E005466D
:100C20003AE04746C8F86000FFF730FD064604E0AA
:100C3000FFF72CFD801B02282BD820688001F7D4F9
:100C4000D5E907010843A96A1C4A490802EB01419A
:100C50006A6A41EA8211084395F82C1040EA016162
:100C60001148001F016001203866FFF70FFD05469F
:100C700005E014E0FFF70AFD401B022809D82068B0
:100C80008001F7D50BE000BFFFF700FD401B0228F5
:100C900002D90320BDE8F88F20688001F4D4002039
:100CA000F8E70120F6E7000008380240003802406B
:100CB00000004742800E4742007000400000FFFFE6
:100CC0004FF0E0210428086903D020F004000861F7
:100CD000704740F00400FAE7704710B5401EB0F1CD
:100CE000807F01D3012010BD4FF0E02460610F210F
:100CF000601700F01FF80020A0610720206100208D
:100D000010BD10B5FFF7E8FF10BDFEE70749096801
:100D1000C9070AD0054980390968C90705D04FF0CD
:100D200060410A68002AFCD008707047800E00E01D
:100D3000FEE770470907090E002806DA00F00F00E9
:100D400000F1E02080F8141D704700F1E02080F8E9
:100D5000001470477047704710B5FFF79DFCBDE861
:100D60001040FFF7CEBF000030B5244893B00024F8
:100D7000016841F080510160006800F080501190DE
:100D80001F48016841F4404101600068022500F4F9
:100D9000404011900120039010200490009506958A
:100DA0000820CDE907406420CDE9090504200B9017
:100DB0006846FFF7F7FD00B1FEE70F20CDE90C050F
:100DC0004FF48050CDE90E4003210CA81094FFF79A
:100DD00019FD00B1FEE7FFF7ADFD4FF47A71B0FBEE
:100DE000F1F0FFF77AFF0420FFF76AFF00221146B7
:100DF000501EFFF7D5FC13B030BD00004038024054
:100E0000007000401048016841F4700101600F4813
:100E1000016841F0010101600C4A002108321160B3
:100E200002680B4B1A400260031D0A4A1A600268EE
:100E300022F48022026005480C3001600249580605
:100E4000803908607047000088ED00E000380240FB
:100E5000FFFFF6FE10300024FEE700000FB4054B44
:100E600010B503A9044A029800F018F810BC5DF808
:100E700014FB0000091200082000002002E008C84E
:100E8000121F08C1002AFAD170477047002001E004
:100E900001C1121F002AFBD1704700002DE9FF4F4E
:100EA00089B09B460446002506E025280BD05A460B
:100EB0000B999047641C6D1C20780028F5D10DB06B
:100EC0002846BDE8F08F0027B8460122474900E0D8
:100ED000074314F8013F203B02FA03F00842F7D120
:100EE00020782E2819D114F8010F47F004072A287A
:100EF0000ED06FF02F022078A0F1300109290CD814
:100F000008EB880102EB410100EB0108641CF2E7E9
:100F10000A98641C50F8048B0A9020780028CED0E0
:100F2000642808D0692806D075281ED05A460B9927
:100F300090476D1C58E00A994FF00A0901C90A91BF
:100F4000002802DA40422D2102E0390504D52B2188
:100F50008DF82010012103E0F90704D02021F7E7E4
:100F60008A4608AE0DE00021FAE70A994FF00A0917
:100F700001C90A91F7E74946FFF75BF9303106F8F6
:100F8000011D0028F7D1ADEB060000F1200978071C
:100F900001D44FF00108C84502DDA8EB090000E0CC
:100FA00000208046002706E008A85A46C05D0B993D
:100FB00090476D1C7F1C5745F6DB04E030205A46F5
:100FC0000B9990476D1CB8F10001A8F10108F5DC00
:100FD00005E016F8010B5A460B9990476D1CB9F1C4
:100FE0000001A9F10109F4DC641C65E7092801008E
:100FF0002DE9F0410D4C16460F4605460022102102
:101000002046FFF73EFB00F0F1F8284600F046F8D6
:101010003146384600F00CF8012210212046FFF737
:1010200030FBBDE8F04100F0E1B8000000000240F4
:101030002DE9F04188460446002628E00020164F9E
:1010400020700546012220213846FFF71AFB00F0E8
:10105000CDF8002220213846FFF713FB00F0C6F838
:1010600020784021400020703846FFF705FB01281A
:1010700003D1207840F0010020706D1CEDB2082DE6
:10108000E0D32078C043761C04F8010BF6B2464545
:10109000D4D3BDE8F0810000000002402DE9F0410A
:1010A0000024114E0746802525FA04F0384201D06D
:1010B000012200E0002280213046FFF7E2FA0122FF
:1010C00020213046FFF7DDFA00F090F800222021C1
:1010D0003046FFF7D6FA00F089F8641CE4B2082C19
:1010E000E2D3BDE8F08100000000024040F0800043
:1010F000FFF7D4BF10B51E4C002210212046FFF789
:10110000C0FAEA20FFF7CAFFE520FFF7C7FF012278
:1011100010212046FFF7B5FA00F06EF800221021EA
:101120002046FFF7AEFA0120FFF7E0FF0020FFF7AF
:10113000B5FF0120FFF7B2FF012210212046FFF783
:10114000A0FA00F059F8002210212046FFF799FA82
:10115000EA20FFF7A3FFDC20FFF7A0FF0122102108
:101160002046FFF78EFABDE8104000F045B80000B9
:101170000000024070B51B4C012210212046FFF7F1
:1011800080FA00F033F8002220212046FFF779FA98
:1011900000F02CF8002280212046FFF772FAFFF7BA
:1011A000A9FF114D002400BF04F1700005EB4401BC
:1011B000C0B20222FFF71CFF641CE4B2082CF3D378
:1011C0000949022210316E20FFF712FF0649022260
:1011D00012316F20FFF70CFF0020801CC0B21228D4
:1011E000FBD370BD00000240240000200020401C02
:1011F000C0B26428FBD3704700204FF49671401CA6
:1012000080B28842FBD37047034A914201D1FFF775
:101210007DBD4FF0FF3070472000002086B0FFF703
:1012200043FAFFF7A1FD1A480024016841F00101CB
:1012300001600068174D00F0010005902246B021C2
:101240002846FFF71EFAB02000900120CDE90104E6
:10125000694628460394FFF74BF94020CDE9000486
:10126000694628460294FFF743F9FFF783FF4FF4DE
:101270007A7400BFFFF764F8FFF700F9B0FBF4F1F0
:1012800005A0FFF7EBFDFFF78BF8FFF71BF8F1E781
:101290003038024000000240563A2025640A00001F
:1012A0000000000000000000010203040607080916
:1012B000D012000800000020240000007C0E00086E
:1012C000F412000824000020140400008C0E000812
:1012D000000000000000000000000000000000000E
:1012E0000100000010000000000000000024F400D5
:0412F00000000000FA
:040000050800019955
:00000001FF
